{
  "transactions": [
    {
      "hash": "0xfca8ac9f9ae45b03d3dca475d533ef462a345ef99596874dcdf968782a56cb1a",
      "transactionType": "CALL",
      "contractName": "MockERC20",
      "contractAddress": "0x218b0fbf7be960805e7639716ca73fb423e2ab69",
      "function": "mint(address,uint256)",
      "arguments": [
        "0xEb017F7Ba12051181C2bF633205B0DB400607D1D",
        "1000000000000000000000"
      ],
      "transaction": {
        "from": "0xeb017f7ba12051181c2bf633205b0db400607d1d",
        "to": "0x218b0fbf7be960805e7639716ca73fb423e2ab69",
        "gas": "0x17123",
        "value": "0x0",
        "input": "0x40c10f19000000000000000000000000eb017f7ba12051181c2bf633205b0db400607d1d00000000000000000000000000000000000000000000003635c9adc5dea00000",
        "nonce": "0x55",
        "chainId": "0xaa36a7"
      },
      "additionalContracts": [],
      "isFixedGasLimit": false
    },
    {
      "hash": "0x68a82aaa6cfcdf332e0bbce905687799aed9bcac2430396f407409ede2ea8efa",
      "transactionType": "CALL",
      "contractName": "MockERC20",
      "contractAddress": "0x218b0fbf7be960805e7639716ca73fb423e2ab69",
      "function": "approve(address,uint256)",
      "arguments": [
        "0xB99e81aCf22C8AFc58f7Ac76D46A72F443f41dE2",
        "500000000000000000000"
      ],
      "transaction": {
        "from": "0xeb017f7ba12051181c2bf633205b0db400607d1d",
        "to": "0x218b0fbf7be960805e7639716ca73fb423e2ab69",
        "gas": "0x108f4",
        "value": "0x0",
        "input": "0x095ea7b3000000000000000000000000b99e81acf22c8afc58f7ac76d46a72f443f41de200000000000000000000000000000000000000000000001b1ae4d6e2ef500000",
        "nonce": "0x56",
        "chainId": "0xaa36a7"
      },
      "additionalContracts": [],
      "isFixedGasLimit": false
    },
    {
      "hash": "0xcfe17b213d4fd75afaeff1bdb7ea6ade9a7e2d4e915a67a4b56dbe1a5391fd01",
      "transactionType": "CALL",
      "contractName": "Vault",
      "contractAddress": "0xb99e81acf22c8afc58f7ac76d46a72f443f41de2",
      "function": "deposit(uint256,address)",
      "arguments": [
        "200000000000000000000",
        "0xEb017F7Ba12051181C2bF633205B0DB400607D1D"
      ],
      "transaction": {
        "from": "0xeb017f7ba12051181c2bf633205b0db400607d1d",
        "to": "0xb99e81acf22c8afc58f7ac76d46a72f443f41de2",
        "gas": "0x2589a",
        "value": "0x0",
        "input": "0x6e553f6500000000000000000000000000000000000000000000000ad78ebc5ac6200000000000000000000000000000eb017f7ba12051181c2bf633205b0db400607d1d",
        "nonce": "0x57",
        "chainId": "0xaa36a7"
      },
      "additionalContracts": [],
      "isFixedGasLimit": false
    },
    {
      "hash": "0xb83811ba06d2efe45f0785b393a8fc00dda9ea1a5dc04e998aa72ecd3c928f34",
      "transactionType": "CALL",
      "contractName": "MockERC20",
      "contractAddress": "0x218b0fbf7be960805e7639716ca73fb423e2ab69",
      "function": "approve(address,uint256)",
      "arguments": [
        "0xB99e81aCf22C8AFc58f7Ac76D46A72F443f41dE2",
        "100000000000000000000"
      ],
      "transaction": {
        "from": "0xeb017f7ba12051181c2bf633205b0db400607d1d",
        "to": "0x218b0fbf7be960805e7639716ca73fb423e2ab69",
        "gas": "0x9df8",
        "value": "0x0",
        "input": "0x095ea7b3000000000000000000000000b99e81acf22c8afc58f7ac76d46a72f443f41de20000000000000000000000000000000000000000000000056bc75e2d63100000",
        "nonce": "0x58",
        "chainId": "0xaa36a7"
      },
      "additionalContracts": [],
      "isFixedGasLimit": false
    },
    {
      "hash": "0x7ecd9d092fa5800ce877b1a852a1718f79f03c2dce1f7a8ffd93d28cab19e856",
      "transactionType": "CALL",
      "contractName": "Vault",
      "contractAddress": "0xb99e81acf22c8afc58f7ac76d46a72f443f41de2",
      "function": "harvest(uint256)",
      "arguments": [
        "100000000000000000000"
      ],
      "transaction": {
        "from": "0xeb017f7ba12051181c2bf633205b0db400607d1d",
        "to": "0xb99e81acf22c8afc58f7ac76d46a72f443f41de2",
        "gas": "0xed1c",
        "value": "0x0",
        "input": "0xddc632620000000000000000000000000000000000000000000000056bc75e2d63100000",
        "nonce": "0x59",
        "chainId": "0xaa36a7"
      },
      "additionalContracts": [],
      "isFixedGasLimit": false
    },
    {
      "hash": "0xfc41fc8231fe6791cc681cba5e0262bbd09dd84d550f06e3a9bc04cf12e18570",
      "transactionType": "CALL",
      "contractName": "Vault",
      "contractAddress": "0xb99e81acf22c8afc58f7ac76d46a72f443f41de2",
      "function": "withdraw(uint256,address,address)",
      "arguments": [
        "50000000000000000000",
        "0xEb017F7Ba12051181C2bF633205B0DB400607D1D",
        "0xEb017F7Ba12051181C2bF633205B0DB400607D1D"
      ],
      "transaction": {
        "from": "0xeb017f7ba12051181c2bf633205b0db400607d1d",
        "to": "0xb99e81acf22c8afc58f7ac76d46a72f443f41de2",
        "gas": "0x136e4",
        "value": "0x0",
        "input": "0xb460af94000000000000000000000000000000000000000000000002b5e3af16b1880000000000000000000000000000eb017f7ba12051181c2bf633205b0db400607d1d000000000000000000000000eb017f7ba12051181c2bf633205b0db400607d1d",
        "nonce": "0x5a",
        "chainId": "0xaa36a7"
      },
      "additionalContracts": [],
      "isFixedGasLimit": false
    }
  ],
  "receipts": [
    {
      "status": "0x1",
      "cumulativeGasUsed": "0x1c9c0b7",
      "logs": [
        {
          "address": "0x218b0fbf7be960805e7639716ca73fb423e2ab69",
          "topics": [
            "0xddf252ad1be2c89b69c2b068fc378daa952ba7f163c4a11628f55a4df523b3ef",
            "0x0000000000000000000000000000000000000000000000000000000000000000",
            "0x000000000000000000000000eb017f7ba12051181c2bf633205b0db400607d1d"
          ],
          "data": "0x00000000000000000000000000000000000000000000003635c9adc5dea00000",
          "blockHash": "0x51805a49ee87598de4809dd2e6771ff99a427c7400f4e434b2d857e08b93f339",
          "blockNumber": "0xa387f6",
          "blockTimestamp": "0x69ea37f8",
          "transactionHash": "0xfca8ac9f9ae45b03d3dca475d533ef462a345ef99596874dcdf968782a56cb1a",
          "transactionIndex": "0x7c",
          "logIndex": "0x34a",
          "removed": false
        }
      ],
      "logsBloom": "0x00000000000000000000000000000000000000000000000000000000000000000000000000000000000000000010000000000000000000000000000000000000000000000000000000000008000000000000000000000000000000000010000000000000020000000000000000000800000000000000000000100010000000000000000000000000000000000000000000000000000000000000000000000000000000000000000000000000000000000000000000000000000000000000000000000002000000000000000000040000100000000000000080000000000020000000000000000000000000000000000000000000000000000000000000000000",
      "type": "0x2",
      "transactionHash": "0xfca8ac9f9ae45b03d3dca475d533ef462a345ef99596874dcdf968782a56cb1a",
      "transactionIndex": "0x7c",
      "blockHash": "0x51805a49ee87598de4809dd2e6771ff99a427c7400f4e434b2d857e08b93f339",
      "blockNumber": "0xa387f6",
      "gasUsed": "0x10b40",
      "effectiveGasPrice": "0xef0e0c",
      "from": "0xeb017f7ba12051181c2bf633205b0db400607d1d",
      "to": "0x218b0fbf7be960805e7639716ca73fb423e2ab69",
      "contractAddress": null
    },
    {
      "status": "0x1",
      "cumulativeGasUsed": "0x1ca75e2",
      "logs": [
        {
          "address": "0x218b0fbf7be960805e7639716ca73fb423e2ab69",
          "topics": [
            "0x8c5be1e5ebec7d5bd14f71427d1e84f3dd0314c0f7b2291e5b200ac8c7c3b925",
            "0x000000000000000000000000eb017f7ba12051181c2bf633205b0db400607d1d",
            "0x000000000000000000000000b99e81acf22c8afc58f7ac76d46a72f443f41de2"
          ],
          "data": "0x00000000000000000000000000000000000000000000001b1ae4d6e2ef500000",
          "blockHash": "0x51805a49ee87598de4809dd2e6771ff99a427c7400f4e434b2d857e08b93f339",
          "blockNumber": "0xa387f6",
          "blockTimestamp": "0x69ea37f8",
          "transactionHash": "0x68a82aaa6cfcdf332e0bbce905687799aed9bcac2430396f407409ede2ea8efa",
          "transactionIndex": "0x7d",
          "logIndex": "0x34b",
          "removed": false
        }
      ],
      "logsBloom": "0x00000000000000000000000000000000000000000000001000000000000000000000000000000000000000000010000000000000000000000000000000200000000000000000000000000000000000000000000000000000000000000010000000000000000000000000000000000000000000000000000008100000000000000000000001000000000000000000000000000000000000000000000000000000020000000000000000000000000000000000000000000000000000000000000000000000000000000000000000040000100000000000000080000000000000000010000000000000000000000000000000000000000000000000000000000000",
      "type": "0x2",
      "transactionHash": "0x68a82aaa6cfcdf332e0bbce905687799aed9bcac2430396f407409ede2ea8efa",
      "transactionIndex": "0x7d",
      "blockHash": "0x51805a49ee87598de4809dd2e6771ff99a427c7400f4e434b2d857e08b93f339",
      "blockNumber": "0xa387f6",
      "gasUsed": "0xb52b",
      "effectiveGasPrice": "0xef0e0c",
      "from": "0xeb017f7ba12051181c2bf633205b0db400607d1d",
      "to": "0x218b0fbf7be960805e7639716ca73fb423e2ab69",
      "contractAddress": null
    },
    {
      "status": "0x1",
      "cumulativeGasUsed": "0x1cc28b6",
      "logs": [
        {
          "address": "0x218b0fbf7be960805e7639716ca73fb423e2ab69",
          "topics": [
            "0xddf252ad1be2c89b69c2b068fc378daa952ba7f163c4a11628f55a4df523b3ef",
            "0x000000000000000000000000eb017f7ba12051181c2bf633205b0db400607d1d",
            "0x000000000000000000000000b99e81acf22c8afc58f7ac76d46a72f443f41de2"
          ],
          "data": "0x00000000000000000000000000000000000000000000000ad78ebc5ac6200000",
          "blockHash": "0x51805a49ee87598de4809dd2e6771ff99a427c7400f4e434b2d857e08b93f339",
          "blockNumber": "0xa387f6",
          "blockTimestamp": "0x69ea37f8",
          "transactionHash": "0xcfe17b213d4fd75afaeff1bdb7ea6ade9a7e2d4e915a67a4b56dbe1a5391fd01",
          "transactionIndex": "0x7e",
          "logIndex": "0x34c",
          "removed": false
        },
        {
          "address": "0xb99e81acf22c8afc58f7ac76d46a72f443f41de2",
          "topics": [
            "0xddf252ad1be2c89b69c2b068fc378daa952ba7f163c4a11628f55a4df523b3ef",
            "0x0000000000000000000000000000000000000000000000000000000000000000",
            "0x000000000000000000000000eb017f7ba12051181c2bf633205b0db400607d1d"
          ],
          "data": "0x00000000000000000000000000000000000000000000000ad78ebc5ac6200000",
          "blockHash": "0x51805a49ee87598de4809dd2e6771ff99a427c7400f4e434b2d857e08b93f339",
          "blockNumber": "0xa387f6",
          "blockTimestamp": "0x69ea37f8",
          "transactionHash": "0xcfe17b213d4fd75afaeff1bdb7ea6ade9a7e2d4e915a67a4b56dbe1a5391fd01",
          "transactionIndex": "0x7e",
          "logIndex": "0x34d",
          "removed": false
        },
        {
          "address": "0xb99e81acf22c8afc58f7ac76d46a72f443f41de2",
          "topics": [
            "0xdcbc1c05240f31ff3ad067ef1ee35ce4997762752e3a095284754544f4c709d7",
            "0x000000000000000000000000eb017f7ba12051181c2bf633205b0db400607d1d",
            "0x000000000000000000000000eb017f7ba12051181c2bf633205b0db400607d1d"
          ],
          "data": "0x00000000000000000000000000000000000000000000000ad78ebc5ac620000000000000000000000000000000000000000000000000000ad78ebc5ac6200000",
          "blockHash": "0x51805a49ee87598de4809dd2e6771ff99a427c7400f4e434b2d857e08b93f339",
          "blockNumber": "0xa387f6",
          "blockTimestamp": "0x69ea37f8",
          "transactionHash": "0xcfe17b213d4fd75afaeff1bdb7ea6ade9a7e2d4e915a67a4b56dbe1a5391fd01",
          "transactionIndex": "0x7e",
          "logIndex": "0x34e",
          "removed": false
        }
      ],
      "logsBloom": "0x00000000000000000000000000000000000000000004001000000000000000000000000000000000000000000010000000000000000000000000000000000000000000400000000000000009000000000000000000000000000000000010000000000000020000000000000000000800000000000004000008100010000000000000000001000000000000000000000000000000000000000000000000000000000000000000000000000000000000000000000000000000000000000000000000000002000000000000000000040000100080000008000080000000000020000000000000000000000000000000000000000000000000000000000000000000",
      "type": "0x2",
      "transactionHash": "0xcfe17b213d4fd75afaeff1bdb7ea6ade9a7e2d4e915a67a4b56dbe1a5391fd01",
      "transactionIndex": "0x7e",
      "blockHash": "0x51805a49ee87598de4809dd2e6771ff99a427c7400f4e434b2d857e08b93f339",
      "blockNumber": "0xa387f6",
      "gasUsed": "0x1b2d4",
      "effectiveGasPrice": "0xef0e0c",
      "from": "0xeb017f7ba12051181c2bf633205b0db400607d1d",
      "to": "0xb99e81acf22c8afc58f7ac76d46a72f443f41de2",
      "contractAddress": null
    },
    {
      "status": "0x1",
      "cumulativeGasUsed": "0x1cc9b15",
      "logs": [
        {
          "address": "0x218b0fbf7be960805e7639716ca73fb423e2ab69",
          "topics": [
            "0x8c5be1e5ebec7d5bd14f71427d1e84f3dd0314c0f7b2291e5b200ac8c7c3b925",
            "0x000000000000000000000000eb017f7ba12051181c2bf633205b0db400607d1d",
            "0x000000000000000000000000b99e81acf22c8afc58f7ac76d46a72f443f41de2"
          ],
          "data": "0x0000000000000000000000000000000000000000000000056bc75e2d63100000",
          "blockHash": "0x51805a49ee87598de4809dd2e6771ff99a427c7400f4e434b2d857e08b93f339",
          "blockNumber": "0xa387f6",
          "blockTimestamp": "0x69ea37f8",
          "transactionHash": "0xb83811ba06d2efe45f0785b393a8fc00dda9ea1a5dc04e998aa72ecd3c928f34",
          "transactionIndex": "0x7f",
          "logIndex": "0x34f",
          "removed": false
        }
      ],
      "logsBloom": "0x00000000000000000000000000000000000000000000001000000000000000000000000000000000000000000010000000000000000000000000000000200000000000000000000000000000000000000000000000000000000000000010000000000000000000000000000000000000000000000000000008100000000000000000000001000000000000000000000000000000000000000000000000000000020000000000000000000000000000000000000000000000000000000000000000000000000000000000000000040000100000000000000080000000000000000010000000000000000000000000000000000000000000000000000000000000",
      "type": "0x2",
      "transactionHash": "0xb83811ba06d2efe45f0785b393a8fc00dda9ea1a5dc04e998aa72ecd3c928f34",
      "transactionIndex": "0x7f",
      "blockHash": "0x51805a49ee87598de4809dd2e6771ff99a427c7400f4e434b2d857e08b93f339",
      "blockNumber": "0xa387f6",
      "gasUsed": "0x725f",
      "effectiveGasPrice": "0xef0e0c",
      "from": "0xeb017f7ba12051181c2bf633205b0db400607d1d",
      "to": "0x218b0fbf7be960805e7639716ca73fb423e2ab69",
      "contractAddress": null
    },
    {
      "status": "0x1",
      "cumulativeGasUsed": "0x1cd3d36",
      "logs": [
        {
          "address": "0x218b0fbf7be960805e7639716ca73fb423e2ab69",
          "topics": [
            "0xddf252ad1be2c89b69c2b068fc378daa952ba7f163c4a11628f55a4df523b3ef",
            "0x000000000000000000000000eb017f7ba12051181c2bf633205b0db400607d1d",
            "0x000000000000000000000000b99e81acf22c8afc58f7ac76d46a72f443f41de2"
          ],
          "data": "0x0000000000000000000000000000000000000000000000056bc75e2d63100000",
          "blockHash": "0x51805a49ee87598de4809dd2e6771ff99a427c7400f4e434b2d857e08b93f339",
          "blockNumber": "0xa387f6",
          "blockTimestamp": "0x69ea37f8",
          "transactionHash": "0x7ecd9d092fa5800ce877b1a852a1718f79f03c2dce1f7a8ffd93d28cab19e856",
          "transactionIndex": "0x80",
          "logIndex": "0x350",
          "removed": false
        },
        {
          "address": "0xb99e81acf22c8afc58f7ac76d46a72f443f41de2",
          "topics": [
            "0x80f97f878e16410266694f134ddf012f2be424f54f8b5cafa107eccc51d00d58"
          ],
          "data": "0x0000000000000000000000000000000000000000000000056bc75e2d63100000",
          "blockHash": "0x51805a49ee87598de4809dd2e6771ff99a427c7400f4e434b2d857e08b93f339",
          "blockNumber": "0xa387f6",
          "blockTimestamp": "0x69ea37f8",
          "transactionHash": "0x7ecd9d092fa5800ce877b1a852a1718f79f03c2dce1f7a8ffd93d28cab19e856",
          "transactionIndex": "0x80",
          "logIndex": "0x351",
          "removed": false
        }
      ],
      "logsBloom": "0x00000000000000000000000000000000000000000004001000000000000008000000000000000000000000000010000000000000000000000000000000000000000000000000000000000009000000000000000000000000000000000010000000000000000000000000000000000000000000000000000008100010000000000000000001000000000000000000000000000000000000040000000000000000000000000000000000000000000000000000000000000000000000000000000000000002000000000000000000040000100080000000000080000000000000000000000000000000000000000000000000000000000000001000000000000000",
      "type": "0x2",
      "transactionHash": "0x7ecd9d092fa5800ce877b1a852a1718f79f03c2dce1f7a8ffd93d28cab19e856",
      "transactionIndex": "0x80",
      "blockHash": "0x51805a49ee87598de4809dd2e6771ff99a427c7400f4e434b2d857e08b93f339",
      "blockNumber": "0xa387f6",
      "gasUsed": "0xa221",
      "effectiveGasPrice": "0xef0e0c",
      "from": "0xeb017f7ba12051181c2bf633205b0db400607d1d",
      "to": "0xb99e81acf22c8afc58f7ac76d46a72f443f41de2",
      "contractAddress": null
    },
    {
      "status": "0x1",
      "cumulativeGasUsed": "0x1ce1e4b",
      "logs": [
        {
          "address": "0xb99e81acf22c8afc58f7ac76d46a72f443f41de2",
          "topics": [
            "0xddf252ad1be2c89b69c2b068fc378daa952ba7f163c4a11628f55a4df523b3ef",
            "0x000000000000000000000000eb017f7ba12051181c2bf633205b0db400607d1d",
            "0x0000000000000000000000000000000000000000000000000000000000000000"
          ],
          "data": "0x000000000000000000000000000000000000000000000001ce97ca0f21055556",
          "blockHash": "0x51805a49ee87598de4809dd2e6771ff99a427c7400f4e434b2d857e08b93f339",
          "blockNumber": "0xa387f6",
          "blockTimestamp": "0x69ea37f8",
          "transactionHash": "0xfc41fc8231fe6791cc681cba5e0262bbd09dd84d550f06e3a9bc04cf12e18570",
          "transactionIndex": "0x81",
          "logIndex": "0x352",
          "removed": false
        },
        {
          "address": "0x218b0fbf7be960805e7639716ca73fb423e2ab69",
          "topics": [
            "0xddf252ad1be2c89b69c2b068fc378daa952ba7f163c4a11628f55a4df523b3ef",
            "0x000000000000000000000000b99e81acf22c8afc58f7ac76d46a72f443f41de2",
            "0x000000000000000000000000eb017f7ba12051181c2bf633205b0db400607d1d"
          ],
          "data": "0x000000000000000000000000000000000000000000000002b5e3af16b1880000",
          "blockHash": "0x51805a49ee87598de4809dd2e6771ff99a427c7400f4e434b2d857e08b93f339",
          "blockNumber": "0xa387f6",
          "blockTimestamp": "0x69ea37f8",
          "transactionHash": "0xfc41fc8231fe6791cc681cba5e0262bbd09dd84d550f06e3a9bc04cf12e18570",
          "transactionIndex": "0x81",
          "logIndex": "0x353",
          "removed": false
        },
        {
          "address": "0xb99e81acf22c8afc58f7ac76d46a72f443f41de2",
          "topics": [
            "0xfbde797d201c681b91056529119e0b02407c7bb96a4a2c75c01fc9667232c8db",
            "0x000000000000000000000000eb017f7ba12051181c2bf633205b0db400607d1d",
            "0x000000000000000000000000eb017f7ba12051181c2bf633205b0db400607d1d",
            "0x000000000000000000000000eb017f7ba12051181c2bf633205b0db400607d1d"
          ],
          "data": "0x000000000000000000000000000000000000000000000002b5e3af16b1880000000000000000000000000000000000000000000000000001ce97ca0f21055556",
          "blockHash": "0x51805a49ee87598de4809dd2e6771ff99a427c7400f4e434b2d857e08b93f339",
          "blockNumber": "0xa387f6",
          "blockTimestamp": "0x69ea37f8",
          "transactionHash": "0xfc41fc8231fe6791cc681cba5e0262bbd09dd84d550f06e3a9bc04cf12e18570",
          "transactionIndex": "0x81",
          "logIndex": "0x354",
          "removed": false
        }
      ],
      "logsBloom": "0x00000000000000400000000000000000000000000004001000000000000000000000000000000000000000000010000000000000000000000000000000000000000000000000000000000009000000000000000000000000000000000010000000000000020000000000000000000800000000000000000008100010000000000000000001000000000000000000000000000000000000000000000000000000000000000000000000000000000000020000000000000000000000000000000000000002000000000000000000040000100080000000000080000000000020000000000000000000000000000000000000000000000000000000000000000000",
      "type": "0x2",
      "transactionHash": "0xfc41fc8231fe6791cc681cba5e0262bbd09dd84d550f06e3a9bc04cf12e18570",
      "transactionIndex": "0x81",
      "blockHash": "0x51805a49ee87598de4809dd2e6771ff99a427c7400f4e434b2d857e08b93f339",
      "blockNumber": "0xa387f6",
      "gasUsed": "0xe115",
      "effectiveGasPrice": "0xef0e0c",
      "from": "0xeb017f7ba12051181c2bf633205b0db400607d1d",
      "to": "0xb99e81acf22c8afc58f7ac76d46a72f443f41de2",
      "contractAddress": null
    }
  ],
  "libraries": [],
  "pending": [],
  "returns": {},
  "timestamp": 1776957433651,
  "chain": 11155111,
  "commit": "96a5baf"
}